:0420000018EF10F0D5
:08200800EA6A060EE96EEF50D2
:102010000EE00F0E016E006A002EFED7012EFBD7D8
:102020008F0E006E002EFED70000EF2EF2D71200AA
:10203000F86AD09E056A046AC150C00B0F09C16ED0
:10204000070EB46E000E0609CA6EFE0ECB6E949497
:102050008B940C0EBD6EB76AB66A056A046A0552A7
:102060001DE10450FE081AE305C002F004C001F0AF
:102070000232013202320132023201C0BEFF0232AC
:102080000230300B006EBD50CF0B0010BD6E050E40
:10209000066EBADF042AD8B4052AE1D7056A0468B7
:1020A000045202E105521BE005C002F004C001F039
:1020B0000232013202320132023201C0BEFF02326C
:1020C0000230300B006EBD50CF0B0010BD6E050E00
:1020D000066E9ADF0450D8B405060406E1D7BDD7D2
:0220E0000300FB
:020000040030CA
:0E00000024CE3E1E0087A1000FC00FE00F406F
:00000001FF
;PIC18F4550
;CRC=9047  CREATED="29-ago.-23 11:54"
