:042000002AEF10F0C3
:08200800000E0609BA6EFE0E7F
:10201000BB6E94948B940C0EBD6EB76AB66A010EBB
:10202000B96E0F015991000143EF10F0EA6A060EF4
:10203000E96EEF500EE00F0E016E006A002EFED723
:10204000012EFBD78F0E006E002EFED70000EF2E64
:10205000F2D71200F86AD09E700ED36ED26A9B6AD5
:10206000056A046AC150F00BC16E000E0F015B6F70
:102070005F6F5C6F5D6F5E6F0101886B9A6A996A32
:10208000986A0001C1D7056A046A05521DE104502F
:10209000FE081AE305C002F004C001F0023201326A
:1020A00002320132023201C0BEFF02320230300B76
:1020B000006EBD50CF0B0010BD6E050E066EB6DF74
:1020C000042AD8B4052AE1D7056A0468045202E15B
:1020D00005521BE005C002F004C001F002320132DB
:1020E00002320132023201C0BEFF02320230300B36
:1020F000006EBD50CF0B0010BD6E050E066E96DF54
:0E2100000450D8B405060406E1D7BDD703008D
:020000040030CA
:0E00000023C85E3C00D3A1000FC00FE00F40EC
:00000001FF
;PIC18F45K50
;CRC=706B  CREATED="07-ago.-19 16:55"
